{
  "_format": "hh-sol-artifact-1",
  "contractName": "Auction",
  "sourceName": "contracts/Auction.sol",
  "abi": [
    {
      "inputs": [
        {
          "internalType": "address",
          "name": "_nftContract",
          "type": "address"
        }
      ],
      "stateMutability": "nonpayable",
      "type": "constructor"
    },
    {
      "anonymous": false,
      "inputs": [
        {
          "indexed": false,
          "internalType": "uint256",
          "name": "nftId",
          "type": "uint256"
        },
        {
          "indexed": false,
          "internalType": "address",
          "name": "winner",
          "type": "address"
        },
        {
          "indexed": false,
          "internalType": "uint256",
          "name": "amount",
          "type": "uint256"
        }
      ],
      "name": "BidAccepted",
      "type": "event"
    },
    {
      "anonymous": false,
      "inputs": [
        {
          "indexed": false,
          "internalType": "uint256",
          "name": "nftId",
          "type": "uint256"
        },
        {
          "indexed": false,
          "internalType": "address",
          "name": "bidder",
          "type": "address"
        },
        {
          "indexed": false,
          "internalType": "uint256",
          "name": "amount",
          "type": "uint256"
        }
      ],
      "name": "BidPlaced",
      "type": "event"
    },
    {
      "anonymous": false,
      "inputs": [
        {
          "indexed": false,
          "internalType": "uint256",
          "name": "nftId",
          "type": "uint256"
        },
        {
          "indexed": false,
          "internalType": "uint256",
          "name": "minBid",
          "type": "uint256"
        }
      ],
      "name": "Listed",
      "type": "event"
    },
    {
      "inputs": [
        {
          "internalType": "uint256",
          "name": "_nftId",
          "type": "uint256"
        }
      ],
      "name": "acceptBid",
      "outputs": [],
      "stateMutability": "nonpayable",
      "type": "function"
    },
    {
      "inputs": [
        {
          "internalType": "uint256",
          "name": "_nftId",
          "type": "uint256"
        }
      ],
      "name": "cancelListing",
      "outputs": [],
      "stateMutability": "nonpayable",
      "type": "function"
    },
    {
      "inputs": [
        {
          "internalType": "uint256",
          "name": "_nftId",
          "type": "uint256"
        }
      ],
      "name": "getListing",
      "outputs": [
        {
          "components": [
            {
              "internalType": "uint256",
              "name": "nftId",
              "type": "uint256"
            },
            {
              "internalType": "address",
              "name": "seller",
              "type": "address"
            },
            {
              "internalType": "uint256",
              "name": "minBid",
              "type": "uint256"
            },
            {
              "internalType": "uint256",
              "name": "highestBid",
              "type": "uint256"
            },
            {
              "internalType": "address",
              "name": "highestBidder",
              "type": "address"
            },
            {
              "internalType": "bool",
              "name": "isActive",
              "type": "bool"
            },
            {
              "internalType": "bool",
              "name": "isSettled",
              "type": "bool"
            }
          ],
          "internalType": "struct Auction.Listing",
          "name": "",
          "type": "tuple"
        }
      ],
      "stateMutability": "view",
      "type": "function"
    },
    {
      "inputs": [],
      "name": "invoiceNFT",
      "outputs": [
        {
          "internalType": "contract InvoiceNFT",
          "name": "",
          "type": "address"
        }
      ],
      "stateMutability": "view",
      "type": "function"
    },
    {
      "inputs": [
        {
          "internalType": "uint256",
          "name": "_nftId",
          "type": "uint256"
        },
        {
          "internalType": "uint256",
          "name": "_minBid",
          "type": "uint256"
        }
      ],
      "name": "listInvoice",
      "outputs": [],
      "stateMutability": "nonpayable",
      "type": "function"
    },
    {
      "inputs": [
        {
          "internalType": "uint256",
          "name": "",
          "type": "uint256"
        }
      ],
      "name": "listings",
      "outputs": [
        {
          "internalType": "uint256",
          "name": "nftId",
          "type": "uint256"
        },
        {
          "internalType": "address",
          "name": "seller",
          "type": "address"
        },
        {
          "internalType": "uint256",
          "name": "minBid",
          "type": "uint256"
        },
        {
          "internalType": "uint256",
          "name": "highestBid",
          "type": "uint256"
        },
        {
          "internalType": "address",
          "name": "highestBidder",
          "type": "address"
        },
        {
          "internalType": "bool",
          "name": "isActive",
          "type": "bool"
        },
        {
          "internalType": "bool",
          "name": "isSettled",
          "type": "bool"
        }
      ],
      "stateMutability": "view",
      "type": "function"
    },
    {
      "inputs": [
        {
          "internalType": "uint256",
          "name": "_nftId",
          "type": "uint256"
        }
      ],
      "name": "placeBid",
      "outputs": [],
      "stateMutability": "payable",
      "type": "function"
    }
  ],
  "bytecode": "0x608060405234801561000f575f5ffd5b506040516115de3803806115de833981810160405281019061003191906100d4565b805f5f6101000a81548173ffffffffffffffffffffffffffffffffffffffff021916908373ffffffffffffffffffffffffffffffffffffffff160217905550506100ff565b5f5ffd5b5f73ffffffffffffffffffffffffffffffffffffffff82169050919050565b5f6100a38261007a565b9050919050565b6100b381610099565b81146100bd575f5ffd5b50565b5f815190506100ce816100aa565b92915050565b5f602082840312156100e9576100e8610076565b5b5f6100f6848285016100c0565b91505092915050565b6114d28061010c5f395ff3fe60806040526004361061006f575f3560e01c80634bb6f06d1161004d5780634bb6f06d146100ff5780639979ef45146101295780639e7cd55814610145578063de74e57b1461016d5761006f565b8063107a274a146100735780632b1fd58a146100af578063305a67a8146100d7575b5f5ffd5b34801561007e575f5ffd5b5061009960048036038101906100949190610e99565b6101af565b6040516100a69190610fb8565b60405180910390f35b3480156100ba575f5ffd5b506100d560048036038101906100d09190610e99565b6102d7565b005b3480156100e2575f5ffd5b506100fd60048036038101906100f89190610e99565b610615565b005b34801561010a575f5ffd5b506101136107d8565b604051610120919061102c565b60405180910390f35b610143600480360381019061013e9190610e99565b6107fc565b005b348015610150575f5ffd5b5061016b60048036038101906101669190611045565b610a3a565b005b348015610178575f5ffd5b50610193600480360381019061018e9190610e99565b610d66565b6040516101a697969594939291906110b0565b60405180910390f35b6101b7610dfc565b60015f8381526020019081526020015f206040518060e00160405290815f8201548152602001600182015f9054906101000a900473ffffffffffffffffffffffffffffffffffffffff1673ffffffffffffffffffffffffffffffffffffffff1673ffffffffffffffffffffffffffffffffffffffff1681526020016002820154815260200160038201548152602001600482015f9054906101000a900473ffffffffffffffffffffffffffffffffffffffff1673ffffffffffffffffffffffffffffffffffffffff1673ffffffffffffffffffffffffffffffffffffffff1681526020016004820160149054906101000a900460ff161515151581526020016004820160159054906101000a900460ff1615151515815250509050919050565b5f60015f8381526020019081526020015f2090503373ffffffffffffffffffffffffffffffffffffffff16816001015f9054906101000a900473ffffffffffffffffffffffffffffffffffffffff1673ffffffffffffffffffffffffffffffffffffffff161461037c576040517f08c379a000000000000000000000000000000000000000000000000000000000815260040161037390611177565b60405180910390fd5b8060040160149054906101000a900460ff166103cd576040517f08c379a00000000000000000000000000000000000000000000000000000000081526004016103c4906111df565b60405180910390fd5b5f73ffffffffffffffffffffffffffffffffffffffff16816004015f9054906101000a900473ffffffffffffffffffffffffffffffffffffffff1673ffffffffffffffffffffffffffffffffffffffff160361045e576040517f08c379a000000000000000000000000000000000000000000000000000000000815260040161045590611247565b60405180910390fd5b5f8160040160146101000a81548160ff02191690831515021790555060018160040160156101000a81548160ff021916908315150217905550806001015f9054906101000a900473ffffffffffffffffffffffffffffffffffffffff1673ffffffffffffffffffffffffffffffffffffffff166108fc826003015490811502906040515f60405180830381858888f19350505050158015610501573d5f5f3e3d5ffd5b505f5f9054906101000a900473ffffffffffffffffffffffffffffffffffffffff1673ffffffffffffffffffffffffffffffffffffffff166323b872dd30836004015f9054906101000a900473ffffffffffffffffffffffffffffffffffffffff16856040518463ffffffff1660e01b815260040161058293929190611265565b5f604051808303815f87803b158015610599575f5ffd5b505af11580156105ab573d5f5f3e3d5ffd5b505050507f91a721693afff25f233ac308edbd2fa15ad7d4dfacdd164dd4e8c57ab72f4ae982826004015f9054906101000a900473ffffffffffffffffffffffffffffffffffffffff1683600301546040516106099392919061129a565b60405180910390a15050565b5f60015f8381526020019081526020015f2090503373ffffffffffffffffffffffffffffffffffffffff16816001015f9054906101000a900473ffffffffffffffffffffffffffffffffffffffff1673ffffffffffffffffffffffffffffffffffffffff16146106ba576040517f08c379a00000000000000000000000000000000000000000000000000000000081526004016106b190611177565b60405180910390fd5b8060040160149054906101000a900460ff1661070b576040517f08c379a0000000000000000000000000000000000000000000000000000000008152600401610702906111df565b60405180910390fd5b5f8160040160146101000a81548160ff0219169083151502179055505f5f9054906101000a900473ffffffffffffffffffffffffffffffffffffffff1673ffffffffffffffffffffffffffffffffffffffff166323b872dd30836001015f9054906101000a900473ffffffffffffffffffffffffffffffffffffffff16856040518463ffffffff1660e01b81526004016107a793929190611265565b5f604051808303815f87803b1580156107be575f5ffd5b505af11580156107d0573d5f5f3e3d5ffd5b505050505050565b5f5f9054906101000a900473ffffffffffffffffffffffffffffffffffffffff1681565b5f60015f8381526020019081526020015f2090508060040160149054906101000a900460ff16610861576040517f08c379a0000000000000000000000000000000000000000000000000000000008152600401610858906111df565b60405180910390fd5b806003015434116108a7576040517f08c379a000000000000000000000000000000000000000000000000000000000815260040161089e90611319565b60405180910390fd5b80600201543410156108ee576040517f08c379a00000000000000000000000000000000000000000000000000000000081526004016108e590611381565b60405180910390fd5b5f73ffffffffffffffffffffffffffffffffffffffff16816004015f9054906101000a900473ffffffffffffffffffffffffffffffffffffffff1673ffffffffffffffffffffffffffffffffffffffff16146109b057806004015f9054906101000a900473ffffffffffffffffffffffffffffffffffffffff1673ffffffffffffffffffffffffffffffffffffffff166108fc826003015490811502906040515f60405180830381858888f193505050501580156109ae573d5f5f3e3d5ffd5b505b34816003018190555033816004015f6101000a81548173ffffffffffffffffffffffffffffffffffffffff021916908373ffffffffffffffffffffffffffffffffffffffff1602179055507f0e54eff26401bf69b81b26f60bd85ef47f5d85275c1d268d84f68d6897431c47823334604051610a2e9392919061129a565b60405180910390a15050565b3373ffffffffffffffffffffffffffffffffffffffff165f5f9054906101000a900473ffffffffffffffffffffffffffffffffffffffff1673ffffffffffffffffffffffffffffffffffffffff16636352211e846040518263ffffffff1660e01b8152600401610aaa919061139f565b602060405180830381865afa158015610ac5573d5f5f3e3d5ffd5b505050506040513d601f19601f82011682018060405250810190610ae991906113e2565b73ffffffffffffffffffffffffffffffffffffffff1614610b3f576040517f08c379a0000000000000000000000000000000000000000000000000000000008152600401610b3690611457565b60405180910390fd5b5f5f9054906101000a900473ffffffffffffffffffffffffffffffffffffffff1673ffffffffffffffffffffffffffffffffffffffff166323b872dd3330856040518463ffffffff1660e01b8152600401610b9c93929190611265565b5f604051808303815f87803b158015610bb3575f5ffd5b505af1158015610bc5573d5f5f3e3d5ffd5b505050506040518060e001604052808381526020013373ffffffffffffffffffffffffffffffffffffffff1681526020018281526020015f81526020015f73ffffffffffffffffffffffffffffffffffffffff1681526020016001151581526020015f151581525060015f8481526020019081526020015f205f820151815f01556020820151816001015f6101000a81548173ffffffffffffffffffffffffffffffffffffffff021916908373ffffffffffffffffffffffffffffffffffffffff16021790555060408201518160020155606082015181600301556080820151816004015f6101000a81548173ffffffffffffffffffffffffffffffffffffffff021916908373ffffffffffffffffffffffffffffffffffffffff16021790555060a08201518160040160146101000a81548160ff02191690831515021790555060c08201518160040160156101000a81548160ff0219169083151502179055509050507f1ea45e30b31292f9d7c5d37d275b2feca555f13f47dce0fdea2f47e8852ecd788282604051610d5a929190611475565b60405180910390a15050565b6001602052805f5260405f205f91509050805f015490806001015f9054906101000a900473ffffffffffffffffffffffffffffffffffffffff1690806002015490806003015490806004015f9054906101000a900473ffffffffffffffffffffffffffffffffffffffff16908060040160149054906101000a900460ff16908060040160159054906101000a900460ff16905087565b6040518060e001604052805f81526020015f73ffffffffffffffffffffffffffffffffffffffff1681526020015f81526020015f81526020015f73ffffffffffffffffffffffffffffffffffffffff1681526020015f151581526020015f151581525090565b5f5ffd5b5f819050919050565b610e7881610e66565b8114610e82575f5ffd5b50565b5f81359050610e9381610e6f565b92915050565b5f60208284031215610eae57610ead610e62565b5b5f610ebb84828501610e85565b91505092915050565b610ecd81610e66565b82525050565b5f73ffffffffffffffffffffffffffffffffffffffff82169050919050565b5f610efc82610ed3565b9050919050565b610f0c81610ef2565b82525050565b5f8115159050919050565b610f2681610f12565b82525050565b60e082015f820151610f405f850182610ec4565b506020820151610f536020850182610f03565b506040820151610f666040850182610ec4565b506060820151610f796060850182610ec4565b506080820151610f8c6080850182610f03565b5060a0820151610f9f60a0850182610f1d565b5060c0820151610fb260c0850182610f1d565b50505050565b5f60e082019050610fcb5f830184610f2c565b92915050565b5f819050919050565b5f610ff4610fef610fea84610ed3565b610fd1565b610ed3565b9050919050565b5f61100582610fda565b9050919050565b5f61101682610ffb565b9050919050565b6110268161100c565b82525050565b5f60208201905061103f5f83018461101d565b92915050565b5f5f6040838503121561105b5761105a610e62565b5b5f61106885828601610e85565b925050602061107985828601610e85565b9150509250929050565b61108c81610e66565b82525050565b61109b81610ef2565b82525050565b6110aa81610f12565b82525050565b5f60e0820190506110c35f83018a611083565b6110d06020830189611092565b6110dd6040830188611083565b6110ea6060830187611083565b6110f76080830186611092565b61110460a08301856110a1565b61111160c08301846110a1565b98975050505050505050565b5f82825260208201905092915050565b7f4e6f742073656c6c6572000000000000000000000000000000000000000000005f82015250565b5f611161600a8361111d565b915061116c8261112d565b602082019050919050565b5f6020820190508181035f83015261118e81611155565b9050919050565b7f4e6f7420616374697665000000000000000000000000000000000000000000005f82015250565b5f6111c9600a8361111d565b91506111d482611195565b602082019050919050565b5f6020820190508181035f8301526111f6816111bd565b9050919050565b7f4e6f2062696473000000000000000000000000000000000000000000000000005f82015250565b5f61123160078361111d565b915061123c826111fd565b602082019050919050565b5f6020820190508181035f83015261125e81611225565b9050919050565b5f6060820190506112785f830186611092565b6112856020830185611092565b6112926040830184611083565b949350505050565b5f6060820190506112ad5f830186611083565b6112ba6020830185611092565b6112c76040830184611083565b949350505050565b7f42696420746f6f206c6f770000000000000000000000000000000000000000005f82015250565b5f611303600b8361111d565b915061130e826112cf565b602082019050919050565b5f6020820190508181035f830152611330816112f7565b9050919050565b7f42656c6f77206d696e696d756d000000000000000000000000000000000000005f82015250565b5f61136b600d8361111d565b915061137682611337565b602082019050919050565b5f6020820190508181035f8301526113988161135f565b9050919050565b5f6020820190506113b25f830184611083565b92915050565b6113c181610ef2565b81146113cb575f5ffd5b50565b5f815190506113dc816113b8565b92915050565b5f602082840312156113f7576113f6610e62565b5b5f611404848285016113ce565b91505092915050565b7f4e6f7420796f7572204e465400000000000000000000000000000000000000005f82015250565b5f611441600c8361111d565b915061144c8261140d565b602082019050919050565b5f6020820190508181035f83015261146e81611435565b9050919050565b5f6040820190506114885f830185611083565b6114956020830184611083565b939250505056fea26469706673582212205f21e5b43adc28abe37d9ab9ae72daeb89272104406f69a2e6bbc7d51170cb8264736f6c634300081c0033",
  "linkReferences": {},
  "deployedLinkReferences": {}
}