{
  "_format": "hh-sol-artifact-1",
  "contractName": "InvoiceNFT",
  "sourceName": "contracts/InvoiceNFT.sol",
  "abi": [
    {
      "inputs": [],
      "stateMutability": "nonpayable",
      "type": "constructor"
    },
    {
      "inputs": [
        {
          "internalType": "address",
          "name": "sender",
          "type": "address"
        },
        {
          "internalType": "uint256",
          "name": "tokenId",
          "type": "uint256"
        },
        {
          "internalType": "address",
          "name": "owner",
          "type": "address"
        }
      ],
      "name": "ERC721IncorrectOwner",
      "type": "error"
    },
    {
      "inputs": [
        {
          "internalType": "address",
          "name": "operator",
          "type": "address"
        },
        {
          "internalType": "uint256",
          "name": "tokenId",
          "type": "uint256"
        }
      ],
      "name": "ERC721InsufficientApproval",
      "type": "error"
    },
    {
      "inputs": [
        {
          "internalType": "address",
          "name": "approver",
          "type": "address"
        }
      ],
      "name": "ERC721InvalidApprover",
      "type": "error"
    },
    {
      "inputs": [
        {
          "internalType": "address",
          "name": "operator",
          "type": "address"
        }
      ],
      "name": "ERC721InvalidOperator",
      "type": "error"
    },
    {
      "inputs": [
        {
          "internalType": "address",
          "name": "owner",
          "type": "address"
        }
      ],
      "name": "ERC721InvalidOwner",
      "type": "error"
    },
    {
      "inputs": [
        {
          "internalType": "address",
          "name": "receiver",
          "type": "address"
        }
      ],
      "name": "ERC721InvalidReceiver",
      "type": "error"
    },
    {
      "inputs": [
        {
          "internalType": "address",
          "name": "sender",
          "type": "address"
        }
      ],
      "name": "ERC721InvalidSender",
      "type": "error"
    },
    {
      "inputs": [
        {
          "internalType": "uint256",
          "name": "tokenId",
          "type": "uint256"
        }
      ],
      "name": "ERC721NonexistentToken",
      "type": "error"
    },
    {
      "anonymous": false,
      "inputs": [
        {
          "indexed": true,
          "internalType": "address",
          "name": "owner",
          "type": "address"
        },
        {
          "indexed": true,
          "internalType": "address",
          "name": "approved",
          "type": "address"
        },
        {
          "indexed": true,
          "internalType": "uint256",
          "name": "tokenId",
          "type": "uint256"
        }
      ],
      "name": "Approval",
      "type": "event"
    },
    {
      "anonymous": false,
      "inputs": [
        {
          "indexed": true,
          "internalType": "address",
          "name": "owner",
          "type": "address"
        },
        {
          "indexed": true,
          "internalType": "address",
          "name": "operator",
          "type": "address"
        },
        {
          "indexed": false,
          "internalType": "bool",
          "name": "approved",
          "type": "bool"
        }
      ],
      "name": "ApprovalForAll",
      "type": "event"
    },
    {
      "anonymous": false,
      "inputs": [
        {
          "indexed": true,
          "internalType": "uint256",
          "name": "id",
          "type": "uint256"
        },
        {
          "indexed": false,
          "internalType": "address",
          "name": "seller",
          "type": "address"
        },
        {
          "indexed": false,
          "internalType": "uint256",
          "name": "amount",
          "type": "uint256"
        }
      ],
      "name": "InvoiceMinted",
      "type": "event"
    },
    {
      "anonymous": false,
      "inputs": [
        {
          "indexed": true,
          "internalType": "uint256",
          "name": "id",
          "type": "uint256"
        }
      ],
      "name": "InvoicePaid",
      "type": "event"
    },
    {
      "anonymous": false,
      "inputs": [
        {
          "indexed": true,
          "internalType": "address",
          "name": "from",
          "type": "address"
        },
        {
          "indexed": true,
          "internalType": "address",
          "name": "to",
          "type": "address"
        },
        {
          "indexed": true,
          "internalType": "uint256",
          "name": "tokenId",
          "type": "uint256"
        }
      ],
      "name": "Transfer",
      "type": "event"
    },
    {
      "inputs": [
        {
          "internalType": "address",
          "name": "to",
          "type": "address"
        },
        {
          "internalType": "uint256",
          "name": "tokenId",
          "type": "uint256"
        }
      ],
      "name": "approve",
      "outputs": [],
      "stateMutability": "nonpayable",
      "type": "function"
    },
    {
      "inputs": [
        {
          "internalType": "address",
          "name": "owner",
          "type": "address"
        }
      ],
      "name": "balanceOf",
      "outputs": [
        {
          "internalType": "uint256",
          "name": "",
          "type": "uint256"
        }
      ],
      "stateMutability": "view",
      "type": "function"
    },
    {
      "inputs": [
        {
          "internalType": "uint256",
          "name": "tokenId",
          "type": "uint256"
        }
      ],
      "name": "getApproved",
      "outputs": [
        {
          "internalType": "address",
          "name": "",
          "type": "address"
        }
      ],
      "stateMutability": "view",
      "type": "function"
    },
    {
      "inputs": [
        {
          "internalType": "uint256",
          "name": "_id",
          "type": "uint256"
        }
      ],
      "name": "getInvoice",
      "outputs": [
        {
          "components": [
            {
              "internalType": "uint256",
              "name": "id",
              "type": "uint256"
            },
            {
              "internalType": "address",
              "name": "seller",
              "type": "address"
            },
            {
              "internalType": "address",
              "name": "buyer",
              "type": "address"
            },
            {
              "internalType": "uint256",
              "name": "amount",
              "type": "uint256"
            },
            {
              "internalType": "uint256",
              "name": "dueDate",
              "type": "uint256"
            },
            {
              "internalType": "string",
              "name": "proofHash",
              "type": "string"
            },
            {
              "internalType": "bool",
              "name": "isPaid",
              "type": "bool"
            },
            {
              "internalType": "bool",
              "name": "isListed",
              "type": "bool"
            }
          ],
          "internalType": "struct InvoiceNFT.Invoice",
          "name": "",
          "type": "tuple"
        }
      ],
      "stateMutability": "view",
      "type": "function"
    },
    {
      "inputs": [
        {
          "internalType": "uint256",
          "name": "",
          "type": "uint256"
        }
      ],
      "name": "invoices",
      "outputs": [
        {
          "internalType": "uint256",
          "name": "id",
          "type": "uint256"
        },
        {
          "internalType": "address",
          "name": "seller",
          "type": "address"
        },
        {
          "internalType": "address",
          "name": "buyer",
          "type": "address"
        },
        {
          "internalType": "uint256",
          "name": "amount",
          "type": "uint256"
        },
        {
          "internalType": "uint256",
          "name": "dueDate",
          "type": "uint256"
        },
        {
          "internalType": "string",
          "name": "proofHash",
          "type": "string"
        },
        {
          "internalType": "bool",
          "name": "isPaid",
          "type": "bool"
        },
        {
          "internalType": "bool",
          "name": "isListed",
          "type": "bool"
        }
      ],
      "stateMutability": "view",
      "type": "function"
    },
    {
      "inputs": [
        {
          "internalType": "address",
          "name": "owner",
          "type": "address"
        },
        {
          "internalType": "address",
          "name": "operator",
          "type": "address"
        }
      ],
      "name": "isApprovedForAll",
      "outputs": [
        {
          "internalType": "bool",
          "name": "",
          "type": "bool"
        }
      ],
      "stateMutability": "view",
      "type": "function"
    },
    {
      "inputs": [
        {
          "internalType": "uint256",
          "name": "_id",
          "type": "uint256"
        }
      ],
      "name": "markAsPaid",
      "outputs": [],
      "stateMutability": "nonpayable",
      "type": "function"
    },
    {
      "inputs": [
        {
          "internalType": "address",
          "name": "_buyer",
          "type": "address"
        },
        {
          "internalType": "uint256",
          "name": "_amount",
          "type": "uint256"
        },
        {
          "internalType": "uint256",
          "name": "_dueDate",
          "type": "uint256"
        },
        {
          "internalType": "string",
          "name": "_proofHash",
          "type": "string"
        }
      ],
      "name": "mintInvoice",
      "outputs": [
        {
          "internalType": "uint256",
          "name": "",
          "type": "uint256"
        }
      ],
      "stateMutability": "nonpayable",
      "type": "function"
    },
    {
      "inputs": [],
      "name": "name",
      "outputs": [
        {
          "internalType": "string",
          "name": "",
          "type": "string"
        }
      ],
      "stateMutability": "view",
      "type": "function"
    },
    {
      "inputs": [
        {
          "internalType": "uint256",
          "name": "tokenId",
          "type": "uint256"
        }
      ],
      "name": "ownerOf",
      "outputs": [
        {
          "internalType": "address",
          "name": "",
          "type": "address"
        }
      ],
      "stateMutability": "view",
      "type": "function"
    },
    {
      "inputs": [
        {
          "internalType": "address",
          "name": "",
          "type": "address"
        }
      ],
      "name": "reputationScore",
      "outputs": [
        {
          "internalType": "uint256",
          "name": "",
          "type": "uint256"
        }
      ],
      "stateMutability": "view",
      "type": "function"
    },
    {
      "inputs": [
        {
          "internalType": "address",
          "name": "from",
          "type": "address"
        },
        {
          "internalType": "address",
          "name": "to",
          "type": "address"
        },
        {
          "internalType": "uint256",
          "name": "tokenId",
          "type": "uint256"
        }
      ],
      "name": "safeTransferFrom",
      "outputs": [],
      "stateMutability": "nonpayable",
      "type": "function"
    },
    {
      "inputs": [
        {
          "internalType": "address",
          "name": "from",
          "type": "address"
        },
        {
          "internalType": "address",
          "name": "to",
          "type": "address"
        },
        {
          "internalType": "uint256",
          "name": "tokenId",
          "type": "uint256"
        },
        {
          "internalType": "bytes",
          "name": "data",
          "type": "bytes"
        }
      ],
      "name": "safeTransferFrom",
      "outputs": [],
      "stateMutability": "nonpayable",
      "type": "function"
    },
    {
      "inputs": [
        {
          "internalType": "address",
          "name": "operator",
          "type": "address"
        },
        {
          "internalType": "bool",
          "name": "approved",
          "type": "bool"
        }
      ],
      "name": "setApprovalForAll",
      "outputs": [],
      "stateMutability": "nonpayable",
      "type": "function"
    },
    {
      "inputs": [
        {
          "internalType": "bytes4",
          "name": "interfaceId",
          "type": "bytes4"
        }
      ],
      "name": "supportsInterface",
      "outputs": [
        {
          "internalType": "bool",
          "name": "",
          "type": "bool"
        }
      ],
      "stateMutability": "view",
      "type": "function"
    },
    {
      "inputs": [],
      "name": "symbol",
      "outputs": [
        {
          "internalType": "string",
          "name": "",
          "type": "string"
        }
      ],
      "stateMutability": "view",
      "type": "function"
    },
    {
      "inputs": [
        {
          "internalType": "uint256",
          "name": "tokenId",
          "type": "uint256"
        }
      ],
      "name": "tokenURI",
      "outputs": [
        {
          "internalType": "string",
          "name": "",
          "type": "string"
        }
      ],
      "stateMutability": "view",
      "type": "function"
    },
    {
      "inputs": [],
      "name": "totalMinted",
      "outputs": [
        {
          "internalType": "uint256",
          "name": "",
          "type": "uint256"
        }
      ],
      "stateMutability": "view",
      "type": "function"
    },
    {
      "inputs": [
        {
          "internalType": "address",
          "name": "from",
          "type": "address"
        },
        {
          "internalType": "address",
          "name": "to",
          "type": "address"
        },
        {
          "internalType": "uint256",
          "name": "tokenId",
          "type": "uint256"
        }
      ],
      "name": "transferFrom",
      "outputs": [],
      "stateMutability": "nonpayable",
      "type": "function"
    }
  ],
  "bytecode": "0x608060405234801561000f575f5ffd5b506040518060400160405280600c81526020017f5472757374496e766f69636500000000000000000000000000000000000000008152506040518060400160405280600481526020017f54494e5600000000000000000000000000000000000000000000000000000000815250815f908161008a91906102df565b50806001908161009a91906102df565b5050506103ae565b5f81519050919050565b7f4e487b71000000000000000000000000000000000000000000000000000000005f52604160045260245ffd5b7f4e487b71000000000000000000000000000000000000000000000000000000005f52602260045260245ffd5b5f600282049050600182168061011d57607f821691505b6020821081036101305761012f6100d9565b5b50919050565b5f819050815f5260205f209050919050565b5f6020601f8301049050919050565b5f82821b905092915050565b5f600883026101927fffffffffffffffffffffffffffffffffffffffffffffffffffffffffffffffff82610157565b61019c8683610157565b95508019841693508086168417925050509392505050565b5f819050919050565b5f819050919050565b5f6101e06101db6101d6846101b4565b6101bd565b6101b4565b9050919050565b5f819050919050565b6101f9836101c6565b61020d610205826101e7565b848454610163565b825550505050565b5f5f905090565b610224610215565b61022f8184846101f0565b505050565b5b81811015610252576102475f8261021c565b600181019050610235565b5050565b601f8211156102975761026881610136565b61027184610148565b81016020851015610280578190505b61029461028c85610148565b830182610234565b50505b505050565b5f82821c905092915050565b5f6102b75f198460080261029c565b1980831691505092915050565b5f6102cf83836102a8565b9150826002028217905092915050565b6102e8826100a2565b67ffffffffffffffff811115610301576103006100ac565b5b61030b8254610106565b610316828285610256565b5f60209050601f831160018114610347575f8415610335578287015190505b61033f85826102c4565b8655506103a6565b601f19841661035586610136565b5f5b8281101561037c57848901518255600182019150602085019450602081019050610357565b868310156103995784890151610395601f8916826102a8565b8355505b6001600288020188555050505b505050505050565b612c4b806103bb5f395ff3fe608060405234801561000f575f5ffd5b506004361061011f575f3560e01c80636352211e116100ab578063a2309ff81161006f578063a2309ff814610342578063b88d4fde14610360578063c87b56dd1461037c578063e985e9c5146103ac578063ebacea15146103dc5761011f565b80636352211e1461028c5780637021cafe146102bc57806370a08231146102d857806395d89b4114610308578063a22cb465146103265761011f565b806323b872dd116100f257806323b872dd146101bd5780633a23cc0a146101d957806342842e0e146102095780634e6d14051461022557806350d061cb1461025c5761011f565b806301ffc9a71461012357806306fdde0314610153578063081812fc14610171578063095ea7b3146101a1575b5f5ffd5b61013d60048036038101906101389190611e2d565b61040c565b60405161014a9190611e72565b60405180910390f35b61015b6104ed565b6040516101689190611efb565b60405180910390f35b61018b60048036038101906101869190611f4e565b61057c565b6040516101989190611fb8565b60405180910390f35b6101bb60048036038101906101b69190611ffb565b610597565b005b6101d760048036038101906101d29190612039565b6105ad565b005b6101f360048036038101906101ee9190611f4e565b6106ac565b60405161020091906121ab565b60405180910390f35b610223600480360381019061021e9190612039565b610864565b005b61023f600480360381019061023a9190611f4e565b610883565b6040516102539897969594939291906121da565b60405180910390f35b6102766004803603810190610271919061225d565b6109a4565b6040516102839190612288565b60405180910390f35b6102a660048036038101906102a19190611f4e565b6109b9565b6040516102b39190611fb8565b60405180910390f35b6102d660048036038101906102d19190611f4e565b6109ca565b005b6102f260048036038101906102ed919061225d565b610b7c565b6040516102ff9190612288565b60405180910390f35b610310610c32565b60405161031d9190611efb565b60405180910390f35b610340600480360381019061033b91906122cb565b610cc2565b005b61034a610cd8565b6040516103579190612288565b60405180910390f35b61037a60048036038101906103759190612435565b610cde565b005b61039660048036038101906103919190611f4e565b610d03565b6040516103a39190611efb565b60405180910390f35b6103c660048036038101906103c191906124b5565b610d69565b6040516103d39190611e72565b60405180910390f35b6103f660048036038101906103f19190612591565b610df7565b6040516104039190612288565b60405180910390f35b5f7f80ac58cd000000000000000000000000000000000000000000000000000000007bffffffffffffffffffffffffffffffffffffffffffffffffffffffff1916827bffffffffffffffffffffffffffffffffffffffffffffffffffffffff191614806104d657507f5b5e139f000000000000000000000000000000000000000000000000000000007bffffffffffffffffffffffffffffffffffffffffffffffffffffffff1916827bffffffffffffffffffffffffffffffffffffffffffffffffffffffff1916145b806104e657506104e582610fe9565b5b9050919050565b60605f80546104fb9061263e565b80601f01602080910402602001604051908101604052809291908181526020018280546105279061263e565b80156105725780601f1061054957610100808354040283529160200191610572565b820191905f5260205f20905b81548152906001019060200180831161055557829003601f168201915b5050505050905090565b5f61058682611052565b50610590826110d8565b9050919050565b6105a982826105a4611111565b611118565b5050565b5f73ffffffffffffffffffffffffffffffffffffffff168273ffffffffffffffffffffffffffffffffffffffff160361061d575f6040517f64a0ae920000000000000000000000000000000000000000000000000000000081526004016106149190611fb8565b60405180910390fd5b5f610630838361062b611111565b61112a565b90508373ffffffffffffffffffffffffffffffffffffffff168173ffffffffffffffffffffffffffffffffffffffff16146106a6578382826040517f64283d7b00000000000000000000000000000000000000000000000000000000815260040161069d9392919061266e565b60405180910390fd5b50505050565b6106b4611d59565b60075f8381526020019081526020015f20604051806101000160405290815f8201548152602001600182015f9054906101000a900473ffffffffffffffffffffffffffffffffffffffff1673ffffffffffffffffffffffffffffffffffffffff1673ffffffffffffffffffffffffffffffffffffffff168152602001600282015f9054906101000a900473ffffffffffffffffffffffffffffffffffffffff1673ffffffffffffffffffffffffffffffffffffffff1673ffffffffffffffffffffffffffffffffffffffff16815260200160038201548152602001600482015481526020016005820180546107a89061263e565b80601f01602080910402602001604051908101604052809291908181526020018280546107d49061263e565b801561081f5780601f106107f65761010080835404028352916020019161081f565b820191905f5260205f20905b81548152906001019060200180831161080257829003601f168201915b50505050508152602001600682015f9054906101000a900460ff161515151581526020016006820160019054906101000a900460ff1615151515815250509050919050565b61087e83838360405180602001604052805f815250610cde565b505050565b6007602052805f5260405f205f91509050805f015490806001015f9054906101000a900473ffffffffffffffffffffffffffffffffffffffff1690806002015f9054906101000a900473ffffffffffffffffffffffffffffffffffffffff16908060030154908060040154908060050180546108fe9061263e565b80601f016020809104026020016040519081016040528092919081815260200182805461092a9061263e565b80156109755780601f1061094c57610100808354040283529160200191610975565b820191905f5260205f20905b81548152906001019060200180831161095857829003601f168201915b505050505090806006015f9054906101000a900460ff16908060060160019054906101000a900460ff16905088565b6009602052805f5260405f205f915090505481565b5f6109c382611052565b9050919050565b3373ffffffffffffffffffffffffffffffffffffffff1660075f8381526020019081526020015f206002015f9054906101000a900473ffffffffffffffffffffffffffffffffffffffff1673ffffffffffffffffffffffffffffffffffffffff1614610a6b576040517f08c379a0000000000000000000000000000000000000000000000000000000008152600401610a62906126ed565b60405180910390fd5b60075f8281526020019081526020015f206006015f9054906101000a900460ff1615610acc576040517f08c379a0000000000000000000000000000000000000000000000000000000008152600401610ac390612755565b60405180910390fd5b600160075f8381526020019081526020015f206006015f6101000a81548160ff021916908315150217905550600a60095f3373ffffffffffffffffffffffffffffffffffffffff1673ffffffffffffffffffffffffffffffffffffffff1681526020019081526020015f205f828254610b4591906127a0565b92505081905550807f4d6cfd329415806d53db8988cd3c035f681754c229f8d7e5183507deae65cc1660405160405180910390a250565b5f5f73ffffffffffffffffffffffffffffffffffffffff168273ffffffffffffffffffffffffffffffffffffffff1603610bed575f6040517f89c62b64000000000000000000000000000000000000000000000000000000008152600401610be49190611fb8565b60405180910390fd5b60035f8373ffffffffffffffffffffffffffffffffffffffff1673ffffffffffffffffffffffffffffffffffffffff1681526020019081526020015f20549050919050565b606060018054610c419061263e565b80601f0160208091040260200160405190810160405280929190818152602001828054610c6d9061263e565b8015610cb85780601f10610c8f57610100808354040283529160200191610cb8565b820191905f5260205f20905b815481529060010190602001808311610c9b57829003601f168201915b5050505050905090565b610cd4610ccd611111565b8383611335565b5050565b60085481565b610ce98484846105ad565b610cfd610cf4611111565b8585858561150e565b50505050565b6060610d0e82611052565b505f610d186116ba565b90505f815111610d365760405180602001604052805f815250610d61565b80610d40846116d0565b604051602001610d5192919061280d565b6040516020818303038152906040525b915050919050565b5f60055f8473ffffffffffffffffffffffffffffffffffffffff1673ffffffffffffffffffffffffffffffffffffffff1681526020019081526020015f205f8373ffffffffffffffffffffffffffffffffffffffff1673ffffffffffffffffffffffffffffffffffffffff1681526020019081526020015f205f9054906101000a900460ff16905092915050565b5f60065f815480929190610e0a90612830565b91905055506006546008819055505f6006549050610e28338261179a565b6040518061010001604052808281526020013373ffffffffffffffffffffffffffffffffffffffff1681526020018773ffffffffffffffffffffffffffffffffffffffff1681526020018681526020018581526020018481526020015f151581526020015f151581525060075f8381526020019081526020015f205f820151815f01556020820151816001015f6101000a81548173ffffffffffffffffffffffffffffffffffffffff021916908373ffffffffffffffffffffffffffffffffffffffff1602179055506040820151816002015f6101000a81548173ffffffffffffffffffffffffffffffffffffffff021916908373ffffffffffffffffffffffffffffffffffffffff160217905550606082015181600301556080820151816004015560a0820151816005019081610f609190612a17565b5060c0820151816006015f6101000a81548160ff02191690831515021790555060e08201518160060160016101000a81548160ff021916908315150217905550905050807fcbf2d87e0ed2db7e41d12a25e364aaa9e7c2d9e2b890a545f3f420035158b8013387604051610fd5929190612ae6565b60405180910390a280915050949350505050565b5f7f01ffc9a7000000000000000000000000000000000000000000000000000000007bffffffffffffffffffffffffffffffffffffffffffffffffffffffff1916827bffffffffffffffffffffffffffffffffffffffffffffffffffffffff1916149050919050565b5f5f61105d8361188d565b90505f73ffffffffffffffffffffffffffffffffffffffff168173ffffffffffffffffffffffffffffffffffffffff16036110cf57826040517f7e2732890000000000000000000000000000000000000000000000000000000081526004016110c69190612288565b60405180910390fd5b80915050919050565b5f60045f8381526020019081526020015f205f9054906101000a900473ffffffffffffffffffffffffffffffffffffffff169050919050565b5f33905090565b61112583838360016118c6565b505050565b5f5f6111358461188d565b90505f73ffffffffffffffffffffffffffffffffffffffff168373ffffffffffffffffffffffffffffffffffffffff161461117657611175818486611a85565b5b5f73ffffffffffffffffffffffffffffffffffffffff168173ffffffffffffffffffffffffffffffffffffffff1614611201576111b55f855f5f6118c6565b600160035f8373ffffffffffffffffffffffffffffffffffffffff1673ffffffffffffffffffffffffffffffffffffffff1681526020019081526020015f205f82825403925050819055505b5f73ffffffffffffffffffffffffffffffffffffffff168573ffffffffffffffffffffffffffffffffffffffff161461128057600160035f8773ffffffffffffffffffffffffffffffffffffffff1673ffffffffffffffffffffffffffffffffffffffff1681526020019081526020015f205f82825401925050819055505b8460025f8681526020019081526020015f205f6101000a81548173ffffffffffffffffffffffffffffffffffffffff021916908373ffffffffffffffffffffffffffffffffffffffff160217905550838573ffffffffffffffffffffffffffffffffffffffff168273ffffffffffffffffffffffffffffffffffffffff167fddf252ad1be2c89b69c2b068fc378daa952ba7f163c4a11628f55a4df523b3ef60405160405180910390a4809150509392505050565b5f73ffffffffffffffffffffffffffffffffffffffff168373ffffffffffffffffffffffffffffffffffffffff16036113a5575f6040517fa9fbf51f00000000000000000000000000000000000000000000000000000000815260040161139c9190611fb8565b60405180910390fd5b5f73ffffffffffffffffffffffffffffffffffffffff168273ffffffffffffffffffffffffffffffffffffffff160361141557816040517f5b08ba1800000000000000000000000000000000000000000000000000000000815260040161140c9190611fb8565b60405180910390fd5b8060055f8573ffffffffffffffffffffffffffffffffffffffff1673ffffffffffffffffffffffffffffffffffffffff1681526020019081526020015f205f8473ffffffffffffffffffffffffffffffffffffffff1673ffffffffffffffffffffffffffffffffffffffff1681526020019081526020015f205f6101000a81548160ff0219169083151502179055508173ffffffffffffffffffffffffffffffffffffffff168373ffffffffffffffffffffffffffffffffffffffff167f17307eab39ab6107e8899845ad3d59bd9653f200f220920489ca2b5937696c31836040516115019190611e72565b60405180910390a3505050565b5f8373ffffffffffffffffffffffffffffffffffffffff163b11156116b3578273ffffffffffffffffffffffffffffffffffffffff1663150b7a02868685856040518563ffffffff1660e01b815260040161156c9493929190612b5f565b6020604051808303815f875af19250505080156115a757506040513d601f19601f820116820180604052508101906115a49190612bbd565b60015b611628573d805f81146115d5576040519150601f19603f3d011682016040523d82523d5f602084013e6115da565b606091505b505f81510361162057836040517f64a0ae920000000000000000000000000000000000000000000000000000000081526004016116179190611fb8565b60405180910390fd5b805160208201fd5b63150b7a0260e01b7bffffffffffffffffffffffffffffffffffffffffffffffffffffffff1916817bffffffffffffffffffffffffffffffffffffffffffffffffffffffff1916146116b157836040517f64a0ae920000000000000000000000000000000000000000000000000000000081526004016116a89190611fb8565b60405180910390fd5b505b5050505050565b606060405180602001604052805f815250905090565b60605f60016116de84611b48565b0190505f8167ffffffffffffffff8111156116fc576116fb612311565b5b6040519080825280601f01601f19166020018201604052801561172e5781602001600182028036833780820191505090505b5090505f82602083010190505b60011561178f578080600190039150507f3031323334353637383961626364656600000000000000000000000000000000600a86061a8153600a858161178457611783612be8565b5b0494505f850361173b575b819350505050919050565b5f73ffffffffffffffffffffffffffffffffffffffff168273ffffffffffffffffffffffffffffffffffffffff160361180a575f6040517f64a0ae920000000000000000000000000000000000000000000000000000000081526004016118019190611fb8565b60405180910390fd5b5f61181683835f61112a565b90505f73ffffffffffffffffffffffffffffffffffffffff168173ffffffffffffffffffffffffffffffffffffffff1614611888575f6040517f73c6ac6e00000000000000000000000000000000000000000000000000000000815260040161187f9190611fb8565b60405180910390fd5b505050565b5f60025f8381526020019081526020015f205f9054906101000a900473ffffffffffffffffffffffffffffffffffffffff169050919050565b80806118fe57505f73ffffffffffffffffffffffffffffffffffffffff168273ffffffffffffffffffffffffffffffffffffffff1614155b15611a30575f61190d84611052565b90505f73ffffffffffffffffffffffffffffffffffffffff168373ffffffffffffffffffffffffffffffffffffffff161415801561197757508273ffffffffffffffffffffffffffffffffffffffff168173ffffffffffffffffffffffffffffffffffffffff1614155b801561198a57506119888184610d69565b155b156119cc57826040517fa9fbf51f0000000000000000000000000000000000000000000000000000000081526004016119c39190611fb8565b60405180910390fd5b8115611a2e57838573ffffffffffffffffffffffffffffffffffffffff168273ffffffffffffffffffffffffffffffffffffffff167f8c5be1e5ebec7d5bd14f71427d1e84f3dd0314c0f7b2291e5b200ac8c7c3b92560405160405180910390a45b505b8360045f8581526020019081526020015f205f6101000a81548173ffffffffffffffffffffffffffffffffffffffff021916908373ffffffffffffffffffffffffffffffffffffffff16021790555050505050565b611a90838383611c99565b611b43575f73ffffffffffffffffffffffffffffffffffffffff168373ffffffffffffffffffffffffffffffffffffffff1603611b0457806040517f7e273289000000000000000000000000000000000000000000000000000000008152600401611afb9190612288565b60405180910390fd5b81816040517f177e802f000000000000000000000000000000000000000000000000000000008152600401611b3a929190612ae6565b60405180910390fd5b505050565b5f5f5f90507a184f03e93ff9f4daa797ed6e38ed64bf6a1f0100000000000000008310611ba4577a184f03e93ff9f4daa797ed6e38ed64bf6a1f0100000000000000008381611b9a57611b99612be8565b5b0492506040810190505b6d04ee2d6d415b85acef81000000008310611be1576d04ee2d6d415b85acef81000000008381611bd757611bd6612be8565b5b0492506020810190505b662386f26fc100008310611c1057662386f26fc100008381611c0657611c05612be8565b5b0492506010810190505b6305f5e1008310611c39576305f5e1008381611c2f57611c2e612be8565b5b0492506008810190505b6127108310611c5e576127108381611c5457611c53612be8565b5b0492506004810190505b60648310611c815760648381611c7757611c76612be8565b5b0492506002810190505b600a8310611c90576001810190505b80915050919050565b5f5f73ffffffffffffffffffffffffffffffffffffffff168373ffffffffffffffffffffffffffffffffffffffff1614158015611d5057508273ffffffffffffffffffffffffffffffffffffffff168473ffffffffffffffffffffffffffffffffffffffff161480611d115750611d108484610d69565b5b80611d4f57508273ffffffffffffffffffffffffffffffffffffffff16611d37836110d8565b73ffffffffffffffffffffffffffffffffffffffff16145b5b90509392505050565b6040518061010001604052805f81526020015f73ffffffffffffffffffffffffffffffffffffffff1681526020015f73ffffffffffffffffffffffffffffffffffffffff1681526020015f81526020015f8152602001606081526020015f151581526020015f151581525090565b5f604051905090565b5f5ffd5b5f5ffd5b5f7fffffffff0000000000000000000000000000000000000000000000000000000082169050919050565b611e0c81611dd8565b8114611e16575f5ffd5b50565b5f81359050611e2781611e03565b92915050565b5f60208284031215611e4257611e41611dd0565b5b5f611e4f84828501611e19565b91505092915050565b5f8115159050919050565b611e6c81611e58565b82525050565b5f602082019050611e855f830184611e63565b92915050565b5f81519050919050565b5f82825260208201905092915050565b8281835e5f83830152505050565b5f601f19601f8301169050919050565b5f611ecd82611e8b565b611ed78185611e95565b9350611ee7818560208601611ea5565b611ef081611eb3565b840191505092915050565b5f6020820190508181035f830152611f138184611ec3565b905092915050565b5f819050919050565b611f2d81611f1b565b8114611f37575f5ffd5b50565b5f81359050611f4881611f24565b92915050565b5f60208284031215611f6357611f62611dd0565b5b5f611f7084828501611f3a565b91505092915050565b5f73ffffffffffffffffffffffffffffffffffffffff82169050919050565b5f611fa282611f79565b9050919050565b611fb281611f98565b82525050565b5f602082019050611fcb5f830184611fa9565b92915050565b611fda81611f98565b8114611fe4575f5ffd5b50565b5f81359050611ff581611fd1565b92915050565b5f5f6040838503121561201157612010611dd0565b5b5f61201e85828601611fe7565b925050602061202f85828601611f3a565b9150509250929050565b5f5f5f606084860312156120505761204f611dd0565b5b5f61205d86828701611fe7565b935050602061206e86828701611fe7565b925050604061207f86828701611f3a565b9150509250925092565b61209281611f1b565b82525050565b6120a181611f98565b82525050565b5f82825260208201905092915050565b5f6120c182611e8b565b6120cb81856120a7565b93506120db818560208601611ea5565b6120e481611eb3565b840191505092915050565b6120f881611e58565b82525050565b5f61010083015f8301516121145f860182612089565b5060208301516121276020860182612098565b50604083015161213a6040860182612098565b50606083015161214d6060860182612089565b5060808301516121606080860182612089565b5060a083015184820360a086015261217882826120b7565b91505060c083015161218d60c08601826120ef565b5060e08301516121a060e08601826120ef565b508091505092915050565b5f6020820190508181035f8301526121c381846120fe565b905092915050565b6121d481611f1b565b82525050565b5f610100820190506121ee5f83018b6121cb565b6121fb602083018a611fa9565b6122086040830189611fa9565b61221560608301886121cb565b61222260808301876121cb565b81810360a08301526122348186611ec3565b905061224360c0830185611e63565b61225060e0830184611e63565b9998505050505050505050565b5f6020828403121561227257612271611dd0565b5b5f61227f84828501611fe7565b91505092915050565b5f60208201905061229b5f8301846121cb565b92915050565b6122aa81611e58565b81146122b4575f5ffd5b50565b5f813590506122c5816122a1565b92915050565b5f5f604083850312156122e1576122e0611dd0565b5b5f6122ee85828601611fe7565b92505060206122ff858286016122b7565b9150509250929050565b5f5ffd5b5f5ffd5b7f4e487b71000000000000000000000000000000000000000000000000000000005f52604160045260245ffd5b61234782611eb3565b810181811067ffffffffffffffff8211171561236657612365612311565b5b80604052505050565b5f612378611dc7565b9050612384828261233e565b919050565b5f67ffffffffffffffff8211156123a3576123a2612311565b5b6123ac82611eb3565b9050602081019050919050565b828183375f83830152505050565b5f6123d96123d484612389565b61236f565b9050828152602081018484840111156123f5576123f461230d565b5b6124008482856123b9565b509392505050565b5f82601f83011261241c5761241b612309565b5b813561242c8482602086016123c7565b91505092915050565b5f5f5f5f6080858703121561244d5761244c611dd0565b5b5f61245a87828801611fe7565b945050602061246b87828801611fe7565b935050604061247c87828801611f3a565b925050606085013567ffffffffffffffff81111561249d5761249c611dd4565b5b6124a987828801612408565b91505092959194509250565b5f5f604083850312156124cb576124ca611dd0565b5b5f6124d885828601611fe7565b92505060206124e985828601611fe7565b9150509250929050565b5f67ffffffffffffffff82111561250d5761250c612311565b5b61251682611eb3565b9050602081019050919050565b5f612535612530846124f3565b61236f565b9050828152602081018484840111156125515761255061230d565b5b61255c8482856123b9565b509392505050565b5f82601f83011261257857612577612309565b5b8135612588848260208601612523565b91505092915050565b5f5f5f5f608085870312156125a9576125a8611dd0565b5b5f6125b687828801611fe7565b94505060206125c787828801611f3a565b93505060406125d887828801611f3a565b925050606085013567ffffffffffffffff8111156125f9576125f8611dd4565b5b61260587828801612564565b91505092959194509250565b7f4e487b71000000000000000000000000000000000000000000000000000000005f52602260045260245ffd5b5f600282049050600182168061265557607f821691505b60208210810361266857612667612611565b5b50919050565b5f6060820190506126815f830186611fa9565b61268e60208301856121cb565b61269b6040830184611fa9565b949350505050565b7f4f6e6c792062757965722063616e20636f6e6669726d000000000000000000005f82015250565b5f6126d7601683611e95565b91506126e2826126a3565b602082019050919050565b5f6020820190508181035f830152612704816126cb565b9050919050565b7f416c7265616479207061696400000000000000000000000000000000000000005f82015250565b5f61273f600c83611e95565b915061274a8261270b565b602082019050919050565b5f6020820190508181035f83015261276c81612733565b9050919050565b7f4e487b71000000000000000000000000000000000000000000000000000000005f52601160045260245ffd5b5f6127aa82611f1b565b91506127b583611f1b565b92508282019050808211156127cd576127cc612773565b5b92915050565b5f81905092915050565b5f6127e782611e8b565b6127f181856127d3565b9350612801818560208601611ea5565b80840191505092915050565b5f61281882856127dd565b915061282482846127dd565b91508190509392505050565b5f61283a82611f1b565b91507fffffffffffffffffffffffffffffffffffffffffffffffffffffffffffffffff820361286c5761286b612773565b5b600182019050919050565b5f819050815f5260205f209050919050565b5f6020601f8301049050919050565b5f82821b905092915050565b5f600883026128d37fffffffffffffffffffffffffffffffffffffffffffffffffffffffffffffffff82612898565b6128dd8683612898565b95508019841693508086168417925050509392505050565b5f819050919050565b5f61291861291361290e84611f1b565b6128f5565b611f1b565b9050919050565b5f819050919050565b612931836128fe565b61294561293d8261291f565b8484546128a4565b825550505050565b5f5f905090565b61295c61294d565b612967818484612928565b505050565b5b8181101561298a5761297f5f82612954565b60018101905061296d565b5050565b601f8211156129cf576129a081612877565b6129a984612889565b810160208510156129b8578190505b6129cc6129c485612889565b83018261296c565b50505b505050565b5f82821c905092915050565b5f6129ef5f19846008026129d4565b1980831691505092915050565b5f612a0783836129e0565b9150826002028217905092915050565b612a2082611e8b565b67ffffffffffffffff811115612a3957612a38612311565b5b612a43825461263e565b612a4e82828561298e565b5f60209050601f831160018114612a7f575f8415612a6d578287015190505b612a7785826129fc565b865550612ade565b601f198416612a8d86612877565b5f5b82811015612ab457848901518255600182019150602085019450602081019050612a8f565b86831015612ad15784890151612acd601f8916826129e0565b8355505b6001600288020188555050505b505050505050565b5f604082019050612af95f830185611fa9565b612b0660208301846121cb565b9392505050565b5f81519050919050565b5f82825260208201905092915050565b5f612b3182612b0d565b612b3b8185612b17565b9350612b4b818560208601611ea5565b612b5481611eb3565b840191505092915050565b5f608082019050612b725f830187611fa9565b612b7f6020830186611fa9565b612b8c60408301856121cb565b8181036060830152612b9e8184612b27565b905095945050505050565b5f81519050612bb781611e03565b92915050565b5f60208284031215612bd257612bd1611dd0565b5b5f612bdf84828501612ba9565b91505092915050565b7f4e487b71000000000000000000000000000000000000000000000000000000005f52601260045260245ffdfea2646970667358221220f46ba23900dc2d73c6fabf935e56f896f8418957944bae5abd4a3bd2cc7fb60264736f6c634300081c0033",
  "linkReferences": {},
  "deployedLinkReferences": {}
}