{
  "_format": "hh-sol-artifact-1",
  "contractName": "InvoiceNFT",
  "sourceName": "contracts/InvoiceNFT.sol",
  "abi": [
    {
      "inputs": [],
      "stateMutability": "nonpayable",
      "type": "constructor"
    },
    {
      "inputs": [
        {
          "internalType": "address",
          "name": "sender",
          "type": "address"
        },
        {
          "internalType": "uint256",
          "name": "tokenId",
          "type": "uint256"
        },
        {
          "internalType": "address",
          "name": "owner",
          "type": "address"
        }
      ],
      "name": "ERC721IncorrectOwner",
      "type": "error"
    },
    {
      "inputs": [
        {
          "internalType": "address",
          "name": "operator",
          "type": "address"
        },
        {
          "internalType": "uint256",
          "name": "tokenId",
          "type": "uint256"
        }
      ],
      "name": "ERC721InsufficientApproval",
      "type": "error"
    },
    {
      "inputs": [
        {
          "internalType": "address",
          "name": "approver",
          "type": "address"
        }
      ],
      "name": "ERC721InvalidApprover",
      "type": "error"
    },
    {
      "inputs": [
        {
          "internalType": "address",
          "name": "operator",
          "type": "address"
        }
      ],
      "name": "ERC721InvalidOperator",
      "type": "error"
    },
    {
      "inputs": [
        {
          "internalType": "address",
          "name": "owner",
          "type": "address"
        }
      ],
      "name": "ERC721InvalidOwner",
      "type": "error"
    },
    {
      "inputs": [
        {
          "internalType": "address",
          "name": "receiver",
          "type": "address"
        }
      ],
      "name": "ERC721InvalidReceiver",
      "type": "error"
    },
    {
      "inputs": [
        {
          "internalType": "address",
          "name": "sender",
          "type": "address"
        }
      ],
      "name": "ERC721InvalidSender",
      "type": "error"
    },
    {
      "inputs": [
        {
          "internalType": "uint256",
          "name": "tokenId",
          "type": "uint256"
        }
      ],
      "name": "ERC721NonexistentToken",
      "type": "error"
    },
    {
      "anonymous": false,
      "inputs": [
        {
          "indexed": true,
          "internalType": "address",
          "name": "owner",
          "type": "address"
        },
        {
          "indexed": true,
          "internalType": "address",
          "name": "approved",
          "type": "address"
        },
        {
          "indexed": true,
          "internalType": "uint256",
          "name": "tokenId",
          "type": "uint256"
        }
      ],
      "name": "Approval",
      "type": "event"
    },
    {
      "anonymous": false,
      "inputs": [
        {
          "indexed": true,
          "internalType": "address",
          "name": "owner",
          "type": "address"
        },
        {
          "indexed": true,
          "internalType": "address",
          "name": "operator",
          "type": "address"
        },
        {
          "indexed": false,
          "internalType": "bool",
          "name": "approved",
          "type": "bool"
        }
      ],
      "name": "ApprovalForAll",
      "type": "event"
    },
    {
      "anonymous": false,
      "inputs": [
        {
          "indexed": true,
          "internalType": "uint256",
          "name": "id",
          "type": "uint256"
        },
        {
          "indexed": false,
          "internalType": "address",
          "name": "seller",
          "type": "address"
        },
        {
          "indexed": false,
          "internalType": "uint256",
          "name": "amount",
          "type": "uint256"
        }
      ],
      "name": "InvoiceMinted",
      "type": "event"
    },
    {
      "anonymous": false,
      "inputs": [
        {
          "indexed": true,
          "internalType": "uint256",
          "name": "id",
          "type": "uint256"
        }
      ],
      "name": "InvoicePaid",
      "type": "event"
    },
    {
      "anonymous": false,
      "inputs": [
        {
          "indexed": true,
          "internalType": "address",
          "name": "from",
          "type": "address"
        },
        {
          "indexed": true,
          "internalType": "address",
          "name": "to",
          "type": "address"
        },
        {
          "indexed": true,
          "internalType": "uint256",
          "name": "tokenId",
          "type": "uint256"
        }
      ],
      "name": "Transfer",
      "type": "event"
    },
    {
      "inputs": [
        {
          "internalType": "address",
          "name": "to",
          "type": "address"
        },
        {
          "internalType": "uint256",
          "name": "tokenId",
          "type": "uint256"
        }
      ],
      "name": "approve",
      "outputs": [],
      "stateMutability": "nonpayable",
      "type": "function"
    },
    {
      "inputs": [
        {
          "internalType": "address",
          "name": "owner",
          "type": "address"
        }
      ],
      "name": "balanceOf",
      "outputs": [
        {
          "internalType": "uint256",
          "name": "",
          "type": "uint256"
        }
      ],
      "stateMutability": "view",
      "type": "function"
    },
    {
      "inputs": [
        {
          "internalType": "uint256",
          "name": "tokenId",
          "type": "uint256"
        }
      ],
      "name": "getApproved",
      "outputs": [
        {
          "internalType": "address",
          "name": "",
          "type": "address"
        }
      ],
      "stateMutability": "view",
      "type": "function"
    },
    {
      "inputs": [
        {
          "internalType": "uint256",
          "name": "_id",
          "type": "uint256"
        }
      ],
      "name": "getInvoice",
      "outputs": [
        {
          "components": [
            {
              "internalType": "uint256",
              "name": "id",
              "type": "uint256"
            },
            {
              "internalType": "address",
              "name": "seller",
              "type": "address"
            },
            {
              "internalType": "address",
              "name": "buyer",
              "type": "address"
            },
            {
              "internalType": "uint256",
              "name": "amount",
              "type": "uint256"
            },
            {
              "internalType": "uint256",
              "name": "dueDate",
              "type": "uint256"
            },
            {
              "internalType": "string",
              "name": "proofHash",
              "type": "string"
            },
            {
              "internalType": "bool",
              "name": "isPaid",
              "type": "bool"
            },
            {
              "internalType": "bool",
              "name": "isListed",
              "type": "bool"
            }
          ],
          "internalType": "struct InvoiceNFT.Invoice",
          "name": "",
          "type": "tuple"
        }
      ],
      "stateMutability": "view",
      "type": "function"
    },
    {
      "inputs": [
        {
          "internalType": "uint256",
          "name": "",
          "type": "uint256"
        }
      ],
      "name": "invoices",
      "outputs": [
        {
          "internalType": "uint256",
          "name": "id",
          "type": "uint256"
        },
        {
          "internalType": "address",
          "name": "seller",
          "type": "address"
        },
        {
          "internalType": "address",
          "name": "buyer",
          "type": "address"
        },
        {
          "internalType": "uint256",
          "name": "amount",
          "type": "uint256"
        },
        {
          "internalType": "uint256",
          "name": "dueDate",
          "type": "uint256"
        },
        {
          "internalType": "string",
          "name": "proofHash",
          "type": "string"
        },
        {
          "internalType": "bool",
          "name": "isPaid",
          "type": "bool"
        },
        {
          "internalType": "bool",
          "name": "isListed",
          "type": "bool"
        }
      ],
      "stateMutability": "view",
      "type": "function"
    },
    {
      "inputs": [
        {
          "internalType": "address",
          "name": "owner",
          "type": "address"
        },
        {
          "internalType": "address",
          "name": "operator",
          "type": "address"
        }
      ],
      "name": "isApprovedForAll",
      "outputs": [
        {
          "internalType": "bool",
          "name": "",
          "type": "bool"
        }
      ],
      "stateMutability": "view",
      "type": "function"
    },
    {
      "inputs": [
        {
          "internalType": "uint256",
          "name": "_id",
          "type": "uint256"
        }
      ],
      "name": "markAsPaid",
      "outputs": [],
      "stateMutability": "nonpayable",
      "type": "function"
    },
    {
      "inputs": [
        {
          "internalType": "address",
          "name": "_buyer",
          "type": "address"
        },
        {
          "internalType": "uint256",
          "name": "_amount",
          "type": "uint256"
        },
        {
          "internalType": "uint256",
          "name": "_dueDate",
          "type": "uint256"
        },
        {
          "internalType": "string",
          "name": "_proofHash",
          "type": "string"
        }
      ],
      "name": "mintInvoice",
      "outputs": [
        {
          "internalType": "uint256",
          "name": "",
          "type": "uint256"
        }
      ],
      "stateMutability": "nonpayable",
      "type": "function"
    },
    {
      "inputs": [],
      "name": "name",
      "outputs": [
        {
          "internalType": "string",
          "name": "",
          "type": "string"
        }
      ],
      "stateMutability": "view",
      "type": "function"
    },
    {
      "inputs": [
        {
          "internalType": "uint256",
          "name": "tokenId",
          "type": "uint256"
        }
      ],
      "name": "ownerOf",
      "outputs": [
        {
          "internalType": "address",
          "name": "",
          "type": "address"
        }
      ],
      "stateMutability": "view",
      "type": "function"
    },
    {
      "inputs": [
        {
          "internalType": "uint256",
          "name": "_id",
          "type": "uint256"
        }
      ],
      "name": "payInvoice",
      "outputs": [],
      "stateMutability": "payable",
      "type": "function"
    },
    {
      "inputs": [
        {
          "internalType": "address",
          "name": "",
          "type": "address"
        }
      ],
      "name": "reputationScore",
      "outputs": [
        {
          "internalType": "uint256",
          "name": "",
          "type": "uint256"
        }
      ],
      "stateMutability": "view",
      "type": "function"
    },
    {
      "inputs": [
        {
          "internalType": "address",
          "name": "from",
          "type": "address"
        },
        {
          "internalType": "address",
          "name": "to",
          "type": "address"
        },
        {
          "internalType": "uint256",
          "name": "tokenId",
          "type": "uint256"
        }
      ],
      "name": "safeTransferFrom",
      "outputs": [],
      "stateMutability": "nonpayable",
      "type": "function"
    },
    {
      "inputs": [
        {
          "internalType": "address",
          "name": "from",
          "type": "address"
        },
        {
          "internalType": "address",
          "name": "to",
          "type": "address"
        },
        {
          "internalType": "uint256",
          "name": "tokenId",
          "type": "uint256"
        },
        {
          "internalType": "bytes",
          "name": "data",
          "type": "bytes"
        }
      ],
      "name": "safeTransferFrom",
      "outputs": [],
      "stateMutability": "nonpayable",
      "type": "function"
    },
    {
      "inputs": [
        {
          "internalType": "address",
          "name": "operator",
          "type": "address"
        },
        {
          "internalType": "bool",
          "name": "approved",
          "type": "bool"
        }
      ],
      "name": "setApprovalForAll",
      "outputs": [],
      "stateMutability": "nonpayable",
      "type": "function"
    },
    {
      "inputs": [
        {
          "internalType": "bytes4",
          "name": "interfaceId",
          "type": "bytes4"
        }
      ],
      "name": "supportsInterface",
      "outputs": [
        {
          "internalType": "bool",
          "name": "",
          "type": "bool"
        }
      ],
      "stateMutability": "view",
      "type": "function"
    },
    {
      "inputs": [],
      "name": "symbol",
      "outputs": [
        {
          "internalType": "string",
          "name": "",
          "type": "string"
        }
      ],
      "stateMutability": "view",
      "type": "function"
    },
    {
      "inputs": [
        {
          "internalType": "uint256",
          "name": "tokenId",
          "type": "uint256"
        }
      ],
      "name": "tokenURI",
      "outputs": [
        {
          "internalType": "string",
          "name": "",
          "type": "string"
        }
      ],
      "stateMutability": "view",
      "type": "function"
    },
    {
      "inputs": [],
      "name": "totalMinted",
      "outputs": [
        {
          "internalType": "uint256",
          "name": "",
          "type": "uint256"
        }
      ],
      "stateMutability": "view",
      "type": "function"
    },
    {
      "inputs": [
        {
          "internalType": "address",
          "name": "from",
          "type": "address"
        },
        {
          "internalType": "address",
          "name": "to",
          "type": "address"
        },
        {
          "internalType": "uint256",
          "name": "tokenId",
          "type": "uint256"
        }
      ],
      "name": "transferFrom",
      "outputs": [],
      "stateMutability": "nonpayable",
      "type": "function"
    }
  ],
  "bytecode": "0x608060405234801561000f575f5ffd5b506040518060400160405280600c81526020017f5472757374496e766f69636500000000000000000000000000000000000000008152506040518060400160405280600481526020017f54494e5600000000000000000000000000000000000000000000000000000000815250815f908161008a91906102df565b50806001908161009a91906102df565b5050506103ae565b5f81519050919050565b7f4e487b71000000000000000000000000000000000000000000000000000000005f52604160045260245ffd5b7f4e487b71000000000000000000000000000000000000000000000000000000005f52602260045260245ffd5b5f600282049050600182168061011d57607f821691505b6020821081036101305761012f6100d9565b5b50919050565b5f819050815f5260205f209050919050565b5f6020601f8301049050919050565b5f82821b905092915050565b5f600883026101927fffffffffffffffffffffffffffffffffffffffffffffffffffffffffffffffff82610157565b61019c8683610157565b95508019841693508086168417925050509392505050565b5f819050919050565b5f819050919050565b5f6101e06101db6101d6846101b4565b6101bd565b6101b4565b9050919050565b5f819050919050565b6101f9836101c6565b61020d610205826101e7565b848454610163565b825550505050565b5f5f905090565b610224610215565b61022f8184846101f0565b505050565b5b81811015610252576102475f8261021c565b600181019050610235565b5050565b601f8211156102975761026881610136565b61027184610148565b81016020851015610280578190505b61029461028c85610148565b830182610234565b50505b505050565b5f82821c905092915050565b5f6102b75f198460080261029c565b1980831691505092915050565b5f6102cf83836102a8565b9150826002028217905092915050565b6102e8826100a2565b67ffffffffffffffff811115610301576103006100ac565b5b61030b8254610106565b610316828285610256565b5f60209050601f831160018114610347575f8415610335578287015190505b61033f85826102c4565b8655506103a6565b601f19841661035586610136565b5f5b8281101561037c57848901518255600182019150602085019450602081019050610357565b868310156103995784890151610395601f8916826102a8565b8355505b6001600288020188555050505b505050505050565b61305f806103bb5f395ff3fe60806040526004361061011e575f3560e01c80637021cafe1161009f578063ac60a6cd11610063578063ac60a6cd14610413578063b88d4fde1461042f578063c87b56dd14610457578063e985e9c514610493578063ebacea15146104cf5761011e565b80637021cafe1461033357806370a082311461035b57806395d89b4114610397578063a22cb465146103c1578063a2309ff8146103e95761011e565b80633a23cc0a116100e65780633a23cc0a1461021457806342842e0e146102505780634e6d14051461027857806350d061cb146102bb5780636352211e146102f75761011e565b806301ffc9a71461012257806306fdde031461015e578063081812fc14610188578063095ea7b3146101c457806323b872dd146101ec575b5f5ffd5b34801561012d575f5ffd5b5061014860048036038101906101439190612171565b61050b565b60405161015591906121b6565b60405180910390f35b348015610169575f5ffd5b506101726105ec565b60405161017f919061223f565b60405180910390f35b348015610193575f5ffd5b506101ae60048036038101906101a99190612292565b61067b565b6040516101bb91906122fc565b60405180910390f35b3480156101cf575f5ffd5b506101ea60048036038101906101e5919061233f565b610696565b005b3480156101f7575f5ffd5b50610212600480360381019061020d919061237d565b6106ac565b005b34801561021f575f5ffd5b5061023a60048036038101906102359190612292565b6107ab565b60405161024791906124ef565b60405180910390f35b34801561025b575f5ffd5b506102766004803603810190610271919061237d565b610963565b005b348015610283575f5ffd5b5061029e60048036038101906102999190612292565b610982565b6040516102b298979695949392919061251e565b60405180910390f35b3480156102c6575f5ffd5b506102e160048036038101906102dc91906125a1565b610aa3565b6040516102ee91906125cc565b60405180910390f35b348015610302575f5ffd5b5061031d60048036038101906103189190612292565b610ab8565b60405161032a91906122fc565b60405180910390f35b34801561033e575f5ffd5b5061035960048036038101906103549190612292565b610ac9565b005b348015610366575f5ffd5b50610381600480360381019061037c91906125a1565b610c7b565b60405161038e91906125cc565b60405180910390f35b3480156103a2575f5ffd5b506103ab610d31565b6040516103b8919061223f565b60405180910390f35b3480156103cc575f5ffd5b506103e760048036038101906103e2919061260f565b610dc1565b005b3480156103f4575f5ffd5b506103fd610dd7565b60405161040a91906125cc565b60405180910390f35b61042d60048036038101906104289190612292565b610ddd565b005b34801561043a575f5ffd5b5061045560048036038101906104509190612779565b611022565b005b348015610462575f5ffd5b5061047d60048036038101906104789190612292565b611047565b60405161048a919061223f565b60405180910390f35b34801561049e575f5ffd5b506104b960048036038101906104b491906127f9565b6110ad565b6040516104c691906121b6565b60405180910390f35b3480156104da575f5ffd5b506104f560048036038101906104f091906128d5565b61113b565b60405161050291906125cc565b60405180910390f35b5f7f80ac58cd000000000000000000000000000000000000000000000000000000007bffffffffffffffffffffffffffffffffffffffffffffffffffffffff1916827bffffffffffffffffffffffffffffffffffffffffffffffffffffffff191614806105d557507f5b5e139f000000000000000000000000000000000000000000000000000000007bffffffffffffffffffffffffffffffffffffffffffffffffffffffff1916827bffffffffffffffffffffffffffffffffffffffffffffffffffffffff1916145b806105e557506105e48261132d565b5b9050919050565b60605f80546105fa90612982565b80601f016020809104026020016040519081016040528092919081815260200182805461062690612982565b80156106715780601f1061064857610100808354040283529160200191610671565b820191905f5260205f20905b81548152906001019060200180831161065457829003601f168201915b5050505050905090565b5f61068582611396565b5061068f8261141c565b9050919050565b6106a882826106a3611455565b61145c565b5050565b5f73ffffffffffffffffffffffffffffffffffffffff168273ffffffffffffffffffffffffffffffffffffffff160361071c575f6040517f64a0ae9200000000000000000000000000000000000000000000000000000000815260040161071391906122fc565b60405180910390fd5b5f61072f838361072a611455565b61146e565b90508373ffffffffffffffffffffffffffffffffffffffff168173ffffffffffffffffffffffffffffffffffffffff16146107a5578382826040517f64283d7b00000000000000000000000000000000000000000000000000000000815260040161079c939291906129b2565b60405180910390fd5b50505050565b6107b361209d565b60075f8381526020019081526020015f20604051806101000160405290815f8201548152602001600182015f9054906101000a900473ffffffffffffffffffffffffffffffffffffffff1673ffffffffffffffffffffffffffffffffffffffff1673ffffffffffffffffffffffffffffffffffffffff168152602001600282015f9054906101000a900473ffffffffffffffffffffffffffffffffffffffff1673ffffffffffffffffffffffffffffffffffffffff1673ffffffffffffffffffffffffffffffffffffffff16815260200160038201548152602001600482015481526020016005820180546108a790612982565b80601f01602080910402602001604051908101604052809291908181526020018280546108d390612982565b801561091e5780601f106108f55761010080835404028352916020019161091e565b820191905f5260205f20905b81548152906001019060200180831161090157829003601f168201915b50505050508152602001600682015f9054906101000a900460ff161515151581526020016006820160019054906101000a900460ff1615151515815250509050919050565b61097d83838360405180602001604052805f815250611022565b505050565b6007602052805f5260405f205f91509050805f015490806001015f9054906101000a900473ffffffffffffffffffffffffffffffffffffffff1690806002015f9054906101000a900473ffffffffffffffffffffffffffffffffffffffff16908060030154908060040154908060050180546109fd90612982565b80601f0160208091040260200160405190810160405280929190818152602001828054610a2990612982565b8015610a745780601f10610a4b57610100808354040283529160200191610a74565b820191905f5260205f20905b815481529060010190602001808311610a5757829003601f168201915b505050505090806006015f9054906101000a900460ff16908060060160019054906101000a900460ff16905088565b6009602052805f5260405f205f915090505481565b5f610ac282611396565b9050919050565b3373ffffffffffffffffffffffffffffffffffffffff1660075f8381526020019081526020015f206002015f9054906101000a900473ffffffffffffffffffffffffffffffffffffffff1673ffffffffffffffffffffffffffffffffffffffff1614610b6a576040517f08c379a0000000000000000000000000000000000000000000000000000000008152600401610b6190612a31565b60405180910390fd5b60075f8281526020019081526020015f206006015f9054906101000a900460ff1615610bcb576040517f08c379a0000000000000000000000000000000000000000000000000000000008152600401610bc290612a99565b60405180910390fd5b600160075f8381526020019081526020015f206006015f6101000a81548160ff021916908315150217905550600a60095f3373ffffffffffffffffffffffffffffffffffffffff1673ffffffffffffffffffffffffffffffffffffffff1681526020019081526020015f205f828254610c449190612ae4565b92505081905550807f4d6cfd329415806d53db8988cd3c035f681754c229f8d7e5183507deae65cc1660405160405180910390a250565b5f5f73ffffffffffffffffffffffffffffffffffffffff168273ffffffffffffffffffffffffffffffffffffffff1603610cec575f6040517f89c62b64000000000000000000000000000000000000000000000000000000008152600401610ce391906122fc565b60405180910390fd5b60035f8373ffffffffffffffffffffffffffffffffffffffff1673ffffffffffffffffffffffffffffffffffffffff1681526020019081526020015f20549050919050565b606060018054610d4090612982565b80601f0160208091040260200160405190810160405280929190818152602001828054610d6c90612982565b8015610db75780601f10610d8e57610100808354040283529160200191610db7565b820191905f5260205f20905b815481529060010190602001808311610d9a57829003601f168201915b5050505050905090565b610dd3610dcc611455565b8383611679565b5050565b60085481565b5f60075f8381526020019081526020015f2090503373ffffffffffffffffffffffffffffffffffffffff16816002015f9054906101000a900473ffffffffffffffffffffffffffffffffffffffff1673ffffffffffffffffffffffffffffffffffffffff1614610e82576040517f08c379a0000000000000000000000000000000000000000000000000000000008152600401610e7990612b61565b60405180910390fd5b806006015f9054906101000a900460ff1615610ed3576040517f08c379a0000000000000000000000000000000000000000000000000000000008152600401610eca90612a99565b60405180910390fd5b8060030154341015610f1a576040517f08c379a0000000000000000000000000000000000000000000000000000000008152600401610f1190612bc9565b60405180910390fd5b6001816006015f6101000a81548160ff021916908315150217905550806001015f9054906101000a900473ffffffffffffffffffffffffffffffffffffffff1673ffffffffffffffffffffffffffffffffffffffff166108fc3490811502906040515f60405180830381858888f19350505050158015610f9c573d5f5f3e3d5ffd5b50600a60095f3373ffffffffffffffffffffffffffffffffffffffff1673ffffffffffffffffffffffffffffffffffffffff1681526020019081526020015f205f828254610fea9190612ae4565b92505081905550817f4d6cfd329415806d53db8988cd3c035f681754c229f8d7e5183507deae65cc1660405160405180910390a25050565b61102d8484846106ac565b611041611038611455565b85858585611852565b50505050565b606061105282611396565b505f61105c6119fe565b90505f81511161107a5760405180602001604052805f8152506110a5565b8061108484611a14565b604051602001611095929190612c21565b6040516020818303038152906040525b915050919050565b5f60055f8473ffffffffffffffffffffffffffffffffffffffff1673ffffffffffffffffffffffffffffffffffffffff1681526020019081526020015f205f8373ffffffffffffffffffffffffffffffffffffffff1673ffffffffffffffffffffffffffffffffffffffff1681526020019081526020015f205f9054906101000a900460ff16905092915050565b5f60065f81548092919061114e90612c44565b91905055506006546008819055505f600654905061116c3382611ade565b6040518061010001604052808281526020013373ffffffffffffffffffffffffffffffffffffffff1681526020018773ffffffffffffffffffffffffffffffffffffffff1681526020018681526020018581526020018481526020015f151581526020015f151581525060075f8381526020019081526020015f205f820151815f01556020820151816001015f6101000a81548173ffffffffffffffffffffffffffffffffffffffff021916908373ffffffffffffffffffffffffffffffffffffffff1602179055506040820151816002015f6101000a81548173ffffffffffffffffffffffffffffffffffffffff021916908373ffffffffffffffffffffffffffffffffffffffff160217905550606082015181600301556080820151816004015560a08201518160050190816112a49190612e2b565b5060c0820151816006015f6101000a81548160ff02191690831515021790555060e08201518160060160016101000a81548160ff021916908315150217905550905050807fcbf2d87e0ed2db7e41d12a25e364aaa9e7c2d9e2b890a545f3f420035158b8013387604051611319929190612efa565b60405180910390a280915050949350505050565b5f7f01ffc9a7000000000000000000000000000000000000000000000000000000007bffffffffffffffffffffffffffffffffffffffffffffffffffffffff1916827bffffffffffffffffffffffffffffffffffffffffffffffffffffffff1916149050919050565b5f5f6113a183611bd1565b90505f73ffffffffffffffffffffffffffffffffffffffff168173ffffffffffffffffffffffffffffffffffffffff160361141357826040517f7e27328900000000000000000000000000000000000000000000000000000000815260040161140a91906125cc565b60405180910390fd5b80915050919050565b5f60045f8381526020019081526020015f205f9054906101000a900473ffffffffffffffffffffffffffffffffffffffff169050919050565b5f33905090565b6114698383836001611c0a565b505050565b5f5f61147984611bd1565b90505f73ffffffffffffffffffffffffffffffffffffffff168373ffffffffffffffffffffffffffffffffffffffff16146114ba576114b9818486611dc9565b5b5f73ffffffffffffffffffffffffffffffffffffffff168173ffffffffffffffffffffffffffffffffffffffff1614611545576114f95f855f5f611c0a565b600160035f8373ffffffffffffffffffffffffffffffffffffffff1673ffffffffffffffffffffffffffffffffffffffff1681526020019081526020015f205f82825403925050819055505b5f73ffffffffffffffffffffffffffffffffffffffff168573ffffffffffffffffffffffffffffffffffffffff16146115c457600160035f8773ffffffffffffffffffffffffffffffffffffffff1673ffffffffffffffffffffffffffffffffffffffff1681526020019081526020015f205f82825401925050819055505b8460025f8681526020019081526020015f205f6101000a81548173ffffffffffffffffffffffffffffffffffffffff021916908373ffffffffffffffffffffffffffffffffffffffff160217905550838573ffffffffffffffffffffffffffffffffffffffff168273ffffffffffffffffffffffffffffffffffffffff167fddf252ad1be2c89b69c2b068fc378daa952ba7f163c4a11628f55a4df523b3ef60405160405180910390a4809150509392505050565b5f73ffffffffffffffffffffffffffffffffffffffff168373ffffffffffffffffffffffffffffffffffffffff16036116e9575f6040517fa9fbf51f0000000000000000000000000000000000000000000000000000000081526004016116e091906122fc565b60405180910390fd5b5f73ffffffffffffffffffffffffffffffffffffffff168273ffffffffffffffffffffffffffffffffffffffff160361175957816040517f5b08ba1800000000000000000000000000000000000000000000000000000000815260040161175091906122fc565b60405180910390fd5b8060055f8573ffffffffffffffffffffffffffffffffffffffff1673ffffffffffffffffffffffffffffffffffffffff1681526020019081526020015f205f8473ffffffffffffffffffffffffffffffffffffffff1673ffffffffffffffffffffffffffffffffffffffff1681526020019081526020015f205f6101000a81548160ff0219169083151502179055508173ffffffffffffffffffffffffffffffffffffffff168373ffffffffffffffffffffffffffffffffffffffff167f17307eab39ab6107e8899845ad3d59bd9653f200f220920489ca2b5937696c318360405161184591906121b6565b60405180910390a3505050565b5f8373ffffffffffffffffffffffffffffffffffffffff163b11156119f7578273ffffffffffffffffffffffffffffffffffffffff1663150b7a02868685856040518563ffffffff1660e01b81526004016118b09493929190612f73565b6020604051808303815f875af19250505080156118eb57506040513d601f19601f820116820180604052508101906118e89190612fd1565b60015b61196c573d805f8114611919576040519150601f19603f3d011682016040523d82523d5f602084013e61191e565b606091505b505f81510361196457836040517f64a0ae9200000000000000000000000000000000000000000000000000000000815260040161195b91906122fc565b60405180910390fd5b805160208201fd5b63150b7a0260e01b7bffffffffffffffffffffffffffffffffffffffffffffffffffffffff1916817bffffffffffffffffffffffffffffffffffffffffffffffffffffffff1916146119f557836040517f64a0ae920000000000000000000000000000000000000000000000000000000081526004016119ec91906122fc565b60405180910390fd5b505b5050505050565b606060405180602001604052805f815250905090565b60605f6001611a2284611e8c565b0190505f8167ffffffffffffffff811115611a4057611a3f612655565b5b6040519080825280601f01601f191660200182016040528015611a725781602001600182028036833780820191505090505b5090505f82602083010190505b600115611ad3578080600190039150507f3031323334353637383961626364656600000000000000000000000000000000600a86061a8153600a8581611ac857611ac7612ffc565b5b0494505f8503611a7f575b819350505050919050565b5f73ffffffffffffffffffffffffffffffffffffffff168273ffffffffffffffffffffffffffffffffffffffff1603611b4e575f6040517f64a0ae92000000000000000000000000000000000000000000000000000000008152600401611b4591906122fc565b60405180910390fd5b5f611b5a83835f61146e565b90505f73ffffffffffffffffffffffffffffffffffffffff168173ffffffffffffffffffffffffffffffffffffffff1614611bcc575f6040517f73c6ac6e000000000000000000000000000000000000000000000000000000008152600401611bc391906122fc565b60405180910390fd5b505050565b5f60025f8381526020019081526020015f205f9054906101000a900473ffffffffffffffffffffffffffffffffffffffff169050919050565b8080611c4257505f73ffffffffffffffffffffffffffffffffffffffff168273ffffffffffffffffffffffffffffffffffffffff1614155b15611d74575f611c5184611396565b90505f73ffffffffffffffffffffffffffffffffffffffff168373ffffffffffffffffffffffffffffffffffffffff1614158015611cbb57508273ffffffffffffffffffffffffffffffffffffffff168173ffffffffffffffffffffffffffffffffffffffff1614155b8015611cce5750611ccc81846110ad565b155b15611d1057826040517fa9fbf51f000000000000000000000000000000000000000000000000000000008152600401611d0791906122fc565b60405180910390fd5b8115611d7257838573ffffffffffffffffffffffffffffffffffffffff168273ffffffffffffffffffffffffffffffffffffffff167f8c5be1e5ebec7d5bd14f71427d1e84f3dd0314c0f7b2291e5b200ac8c7c3b92560405160405180910390a45b505b8360045f8581526020019081526020015f205f6101000a81548173ffffffffffffffffffffffffffffffffffffffff021916908373ffffffffffffffffffffffffffffffffffffffff16021790555050505050565b611dd4838383611fdd565b611e87575f73ffffffffffffffffffffffffffffffffffffffff168373ffffffffffffffffffffffffffffffffffffffff1603611e4857806040517f7e273289000000000000000000000000000000000000000000000000000000008152600401611e3f91906125cc565b60405180910390fd5b81816040517f177e802f000000000000000000000000000000000000000000000000000000008152600401611e7e929190612efa565b60405180910390fd5b505050565b5f5f5f90507a184f03e93ff9f4daa797ed6e38ed64bf6a1f0100000000000000008310611ee8577a184f03e93ff9f4daa797ed6e38ed64bf6a1f0100000000000000008381611ede57611edd612ffc565b5b0492506040810190505b6d04ee2d6d415b85acef81000000008310611f25576d04ee2d6d415b85acef81000000008381611f1b57611f1a612ffc565b5b0492506020810190505b662386f26fc100008310611f5457662386f26fc100008381611f4a57611f49612ffc565b5b0492506010810190505b6305f5e1008310611f7d576305f5e1008381611f7357611f72612ffc565b5b0492506008810190505b6127108310611fa2576127108381611f9857611f97612ffc565b5b0492506004810190505b60648310611fc55760648381611fbb57611fba612ffc565b5b0492506002810190505b600a8310611fd4576001810190505b80915050919050565b5f5f73ffffffffffffffffffffffffffffffffffffffff168373ffffffffffffffffffffffffffffffffffffffff161415801561209457508273ffffffffffffffffffffffffffffffffffffffff168473ffffffffffffffffffffffffffffffffffffffff161480612055575061205484846110ad565b5b8061209357508273ffffffffffffffffffffffffffffffffffffffff1661207b8361141c565b73ffffffffffffffffffffffffffffffffffffffff16145b5b90509392505050565b6040518061010001604052805f81526020015f73ffffffffffffffffffffffffffffffffffffffff1681526020015f73ffffffffffffffffffffffffffffffffffffffff1681526020015f81526020015f8152602001606081526020015f151581526020015f151581525090565b5f604051905090565b5f5ffd5b5f5ffd5b5f7fffffffff0000000000000000000000000000000000000000000000000000000082169050919050565b6121508161211c565b811461215a575f5ffd5b50565b5f8135905061216b81612147565b92915050565b5f6020828403121561218657612185612114565b5b5f6121938482850161215d565b91505092915050565b5f8115159050919050565b6121b08161219c565b82525050565b5f6020820190506121c95f8301846121a7565b92915050565b5f81519050919050565b5f82825260208201905092915050565b8281835e5f83830152505050565b5f601f19601f8301169050919050565b5f612211826121cf565b61221b81856121d9565b935061222b8185602086016121e9565b612234816121f7565b840191505092915050565b5f6020820190508181035f8301526122578184612207565b905092915050565b5f819050919050565b6122718161225f565b811461227b575f5ffd5b50565b5f8135905061228c81612268565b92915050565b5f602082840312156122a7576122a6612114565b5b5f6122b48482850161227e565b91505092915050565b5f73ffffffffffffffffffffffffffffffffffffffff82169050919050565b5f6122e6826122bd565b9050919050565b6122f6816122dc565b82525050565b5f60208201905061230f5f8301846122ed565b92915050565b61231e816122dc565b8114612328575f5ffd5b50565b5f8135905061233981612315565b92915050565b5f5f6040838503121561235557612354612114565b5b5f6123628582860161232b565b92505060206123738582860161227e565b9150509250929050565b5f5f5f6060848603121561239457612393612114565b5b5f6123a18682870161232b565b93505060206123b28682870161232b565b92505060406123c38682870161227e565b9150509250925092565b6123d68161225f565b82525050565b6123e5816122dc565b82525050565b5f82825260208201905092915050565b5f612405826121cf565b61240f81856123eb565b935061241f8185602086016121e9565b612428816121f7565b840191505092915050565b61243c8161219c565b82525050565b5f61010083015f8301516124585f8601826123cd565b50602083015161246b60208601826123dc565b50604083015161247e60408601826123dc565b50606083015161249160608601826123cd565b5060808301516124a460808601826123cd565b5060a083015184820360a08601526124bc82826123fb565b91505060c08301516124d160c0860182612433565b5060e08301516124e460e0860182612433565b508091505092915050565b5f6020820190508181035f8301526125078184612442565b905092915050565b6125188161225f565b82525050565b5f610100820190506125325f83018b61250f565b61253f602083018a6122ed565b61254c60408301896122ed565b612559606083018861250f565b612566608083018761250f565b81810360a08301526125788186612207565b905061258760c08301856121a7565b61259460e08301846121a7565b9998505050505050505050565b5f602082840312156125b6576125b5612114565b5b5f6125c38482850161232b565b91505092915050565b5f6020820190506125df5f83018461250f565b92915050565b6125ee8161219c565b81146125f8575f5ffd5b50565b5f81359050612609816125e5565b92915050565b5f5f6040838503121561262557612624612114565b5b5f6126328582860161232b565b9250506020612643858286016125fb565b9150509250929050565b5f5ffd5b5f5ffd5b7f4e487b71000000000000000000000000000000000000000000000000000000005f52604160045260245ffd5b61268b826121f7565b810181811067ffffffffffffffff821117156126aa576126a9612655565b5b80604052505050565b5f6126bc61210b565b90506126c88282612682565b919050565b5f67ffffffffffffffff8211156126e7576126e6612655565b5b6126f0826121f7565b9050602081019050919050565b828183375f83830152505050565b5f61271d612718846126cd565b6126b3565b90508281526020810184848401111561273957612738612651565b5b6127448482856126fd565b509392505050565b5f82601f8301126127605761275f61264d565b5b813561277084826020860161270b565b91505092915050565b5f5f5f5f6080858703121561279157612790612114565b5b5f61279e8782880161232b565b94505060206127af8782880161232b565b93505060406127c08782880161227e565b925050606085013567ffffffffffffffff8111156127e1576127e0612118565b5b6127ed8782880161274c565b91505092959194509250565b5f5f6040838503121561280f5761280e612114565b5b5f61281c8582860161232b565b925050602061282d8582860161232b565b9150509250929050565b5f67ffffffffffffffff82111561285157612850612655565b5b61285a826121f7565b9050602081019050919050565b5f61287961287484612837565b6126b3565b90508281526020810184848401111561289557612894612651565b5b6128a08482856126fd565b509392505050565b5f82601f8301126128bc576128bb61264d565b5b81356128cc848260208601612867565b91505092915050565b5f5f5f5f608085870312156128ed576128ec612114565b5b5f6128fa8782880161232b565b945050602061290b8782880161227e565b935050604061291c8782880161227e565b925050606085013567ffffffffffffffff81111561293d5761293c612118565b5b612949878288016128a8565b91505092959194509250565b7f4e487b71000000000000000000000000000000000000000000000000000000005f52602260045260245ffd5b5f600282049050600182168061299957607f821691505b6020821081036129ac576129ab612955565b5b50919050565b5f6060820190506129c55f8301866122ed565b6129d2602083018561250f565b6129df60408301846122ed565b949350505050565b7f4f6e6c792062757965722063616e20636f6e6669726d000000000000000000005f82015250565b5f612a1b6016836121d9565b9150612a26826129e7565b602082019050919050565b5f6020820190508181035f830152612a4881612a0f565b9050919050565b7f416c7265616479207061696400000000000000000000000000000000000000005f82015250565b5f612a83600c836121d9565b9150612a8e82612a4f565b602082019050919050565b5f6020820190508181035f830152612ab081612a77565b9050919050565b7f4e487b71000000000000000000000000000000000000000000000000000000005f52601160045260245ffd5b5f612aee8261225f565b9150612af98361225f565b9250828201905080821115612b1157612b10612ab7565b5b92915050565b7f4f6e6c792062757965722063616e2070617900000000000000000000000000005f82015250565b5f612b4b6012836121d9565b9150612b5682612b17565b602082019050919050565b5f6020820190508181035f830152612b7881612b3f565b9050919050565b7f496e73756666696369656e74207061796d656e740000000000000000000000005f82015250565b5f612bb36014836121d9565b9150612bbe82612b7f565b602082019050919050565b5f6020820190508181035f830152612be081612ba7565b9050919050565b5f81905092915050565b5f612bfb826121cf565b612c058185612be7565b9350612c158185602086016121e9565b80840191505092915050565b5f612c2c8285612bf1565b9150612c388284612bf1565b91508190509392505050565b5f612c4e8261225f565b91507fffffffffffffffffffffffffffffffffffffffffffffffffffffffffffffffff8203612c8057612c7f612ab7565b5b600182019050919050565b5f819050815f5260205f209050919050565b5f6020601f8301049050919050565b5f82821b905092915050565b5f60088302612ce77fffffffffffffffffffffffffffffffffffffffffffffffffffffffffffffffff82612cac565b612cf18683612cac565b95508019841693508086168417925050509392505050565b5f819050919050565b5f612d2c612d27612d228461225f565b612d09565b61225f565b9050919050565b5f819050919050565b612d4583612d12565b612d59612d5182612d33565b848454612cb8565b825550505050565b5f5f905090565b612d70612d61565b612d7b818484612d3c565b505050565b5b81811015612d9e57612d935f82612d68565b600181019050612d81565b5050565b601f821115612de357612db481612c8b565b612dbd84612c9d565b81016020851015612dcc578190505b612de0612dd885612c9d565b830182612d80565b50505b505050565b5f82821c905092915050565b5f612e035f1984600802612de8565b1980831691505092915050565b5f612e1b8383612df4565b9150826002028217905092915050565b612e34826121cf565b67ffffffffffffffff811115612e4d57612e4c612655565b5b612e578254612982565b612e62828285612da2565b5f60209050601f831160018114612e93575f8415612e81578287015190505b612e8b8582612e10565b865550612ef2565b601f198416612ea186612c8b565b5f5b82811015612ec857848901518255600182019150602085019450602081019050612ea3565b86831015612ee55784890151612ee1601f891682612df4565b8355505b6001600288020188555050505b505050505050565b5f604082019050612f0d5f8301856122ed565b612f1a602083018461250f565b9392505050565b5f81519050919050565b5f82825260208201905092915050565b5f612f4582612f21565b612f4f8185612f2b565b9350612f5f8185602086016121e9565b612f68816121f7565b840191505092915050565b5f608082019050612f865f8301876122ed565b612f9360208301866122ed565b612fa0604083018561250f565b8181036060830152612fb28184612f3b565b905095945050505050565b5f81519050612fcb81612147565b92915050565b5f60208284031215612fe657612fe5612114565b5b5f612ff384828501612fbd565b91505092915050565b7f4e487b71000000000000000000000000000000000000000000000000000000005f52601260045260245ffdfea26469706673582212209d3c65abc790de7b4d76d80b4a9cdb4d783dc986a4f247fbfd3ade869be47fc964736f6c634300081c0033",
  "linkReferences": {},
  "deployedLinkReferences": {}
}